{
  "_format": "hh-sol-artifact-1",
  "contractName": "NFTToken",
  "sourceName": "contracts/NFTToken.sol",
  "abi": [
    {
      "inputs": [],
      "stateMutability": "nonpayable",
      "type": "constructor"
    },
    {
      "anonymous": false,
      "inputs": [
        {
          "indexed": true,
          "internalType": "address",
          "name": "owner",
          "type": "address"
        },
        {
          "indexed": true,
          "internalType": "address",
          "name": "approved",
          "type": "address"
        },
        {
          "indexed": true,
          "internalType": "uint256",
          "name": "tokenId",
          "type": "uint256"
        }
      ],
      "name": "Approval",
      "type": "event"
    },
    {
      "anonymous": false,
      "inputs": [
        {
          "indexed": true,
          "internalType": "address",
          "name": "owner",
          "type": "address"
        },
        {
          "indexed": true,
          "internalType": "address",
          "name": "operator",
          "type": "address"
        },
        {
          "indexed": false,
          "internalType": "bool",
          "name": "approved",
          "type": "bool"
        }
      ],
      "name": "ApprovalForAll",
      "type": "event"
    },
    {
      "anonymous": false,
      "inputs": [
        {
          "indexed": false,
          "internalType": "uint256",
          "name": "_fromTokenId",
          "type": "uint256"
        },
        {
          "indexed": false,
          "internalType": "uint256",
          "name": "_toTokenId",
          "type": "uint256"
        }
      ],
      "name": "BatchMetadataUpdate",
      "type": "event"
    },
    {
      "anonymous": false,
      "inputs": [
        {
          "indexed": false,
          "internalType": "uint256",
          "name": "_tokenId",
          "type": "uint256"
        }
      ],
      "name": "MetadataUpdate",
      "type": "event"
    },
    {
      "anonymous": false,
      "inputs": [
        {
          "indexed": true,
          "internalType": "address",
          "name": "from",
          "type": "address"
        },
        {
          "indexed": true,
          "internalType": "address",
          "name": "to",
          "type": "address"
        },
        {
          "indexed": true,
          "internalType": "uint256",
          "name": "tokenId",
          "type": "uint256"
        }
      ],
      "name": "Transfer",
      "type": "event"
    },
    {
      "inputs": [
        {
          "internalType": "address",
          "name": "to",
          "type": "address"
        },
        {
          "internalType": "uint256",
          "name": "tokenId",
          "type": "uint256"
        }
      ],
      "name": "approve",
      "outputs": [],
      "stateMutability": "nonpayable",
      "type": "function"
    },
    {
      "inputs": [
        {
          "internalType": "address",
          "name": "owner",
          "type": "address"
        }
      ],
      "name": "balanceOf",
      "outputs": [
        {
          "internalType": "uint256",
          "name": "",
          "type": "uint256"
        }
      ],
      "stateMutability": "view",
      "type": "function"
    },
    {
      "inputs": [
        {
          "internalType": "uint256",
          "name": "tokenId",
          "type": "uint256"
        }
      ],
      "name": "getApproved",
      "outputs": [
        {
          "internalType": "address",
          "name": "",
          "type": "address"
        }
      ],
      "stateMutability": "view",
      "type": "function"
    },
    {
      "inputs": [
        {
          "internalType": "address",
          "name": "owner",
          "type": "address"
        },
        {
          "internalType": "address",
          "name": "operator",
          "type": "address"
        }
      ],
      "name": "isApprovedForAll",
      "outputs": [
        {
          "internalType": "bool",
          "name": "",
          "type": "bool"
        }
      ],
      "stateMutability": "view",
      "type": "function"
    },
    {
      "inputs": [],
      "name": "name",
      "outputs": [
        {
          "internalType": "string",
          "name": "",
          "type": "string"
        }
      ],
      "stateMutability": "view",
      "type": "function"
    },
    {
      "inputs": [
        {
          "internalType": "uint256",
          "name": "tokenId",
          "type": "uint256"
        }
      ],
      "name": "ownerOf",
      "outputs": [
        {
          "internalType": "address",
          "name": "",
          "type": "address"
        }
      ],
      "stateMutability": "view",
      "type": "function"
    },
    {
      "inputs": [
        {
          "internalType": "string",
          "name": "uri",
          "type": "string"
        },
        {
          "internalType": "address",
          "name": "marketPlaceAddress",
          "type": "address"
        },
        {
          "internalType": "address",
          "name": "creator",
          "type": "address"
        }
      ],
      "name": "safeMint",
      "outputs": [
        {
          "internalType": "uint256",
          "name": "",
          "type": "uint256"
        }
      ],
      "stateMutability": "payable",
      "type": "function"
    },
    {
      "inputs": [
        {
          "internalType": "address",
          "name": "from",
          "type": "address"
        },
        {
          "internalType": "address",
          "name": "to",
          "type": "address"
        },
        {
          "internalType": "uint256",
          "name": "tokenId",
          "type": "uint256"
        }
      ],
      "name": "safeTransferFrom",
      "outputs": [],
      "stateMutability": "nonpayable",
      "type": "function"
    },
    {
      "inputs": [
        {
          "internalType": "address",
          "name": "from",
          "type": "address"
        },
        {
          "internalType": "address",
          "name": "to",
          "type": "address"
        },
        {
          "internalType": "uint256",
          "name": "tokenId",
          "type": "uint256"
        },
        {
          "internalType": "bytes",
          "name": "data",
          "type": "bytes"
        }
      ],
      "name": "safeTransferFrom",
      "outputs": [],
      "stateMutability": "nonpayable",
      "type": "function"
    },
    {
      "inputs": [
        {
          "internalType": "address",
          "name": "operator",
          "type": "address"
        },
        {
          "internalType": "bool",
          "name": "approved",
          "type": "bool"
        }
      ],
      "name": "setApprovalForAll",
      "outputs": [],
      "stateMutability": "nonpayable",
      "type": "function"
    },
    {
      "inputs": [
        {
          "internalType": "bytes4",
          "name": "interfaceId",
          "type": "bytes4"
        }
      ],
      "name": "supportsInterface",
      "outputs": [
        {
          "internalType": "bool",
          "name": "",
          "type": "bool"
        }
      ],
      "stateMutability": "view",
      "type": "function"
    },
    {
      "inputs": [],
      "name": "symbol",
      "outputs": [
        {
          "internalType": "string",
          "name": "",
          "type": "string"
        }
      ],
      "stateMutability": "view",
      "type": "function"
    },
    {
      "inputs": [
        {
          "internalType": "uint256",
          "name": "tokenId",
          "type": "uint256"
        }
      ],
      "name": "tokenURI",
      "outputs": [
        {
          "internalType": "string",
          "name": "",
          "type": "string"
        }
      ],
      "stateMutability": "view",
      "type": "function"
    },
    {
      "inputs": [
        {
          "internalType": "address",
          "name": "from",
          "type": "address"
        },
        {
          "internalType": "address",
          "name": "to",
          "type": "address"
        },
        {
          "internalType": "uint256",
          "name": "tokenId",
          "type": "uint256"
        }
      ],
      "name": "transferFrom",
      "outputs": [],
      "stateMutability": "nonpayable",
      "type": "function"
    }
  ],
  "bytecode": "0x60806040523480156200001157600080fd5b506040518060400160405280600f81526020017f4e4654204d61726b6574506c61636500000000000000000000000000000000008152506040518060400160405280600381526020017f4d4b52000000000000000000000000000000000000000000000000000000000081525081600090816200008f919062000324565b508060019081620000a1919062000324565b5050506200040b565b600081519050919050565b7f4e487b7100000000000000000000000000000000000000000000000000000000600052604160045260246000fd5b7f4e487b7100000000000000000000000000000000000000000000000000000000600052602260045260246000fd5b600060028204905060018216806200012c57607f821691505b602082108103620001425762000141620000e4565b5b50919050565b60008190508160005260206000209050919050565b60006020601f8301049050919050565b600082821b905092915050565b600060088302620001ac7fffffffffffffffffffffffffffffffffffffffffffffffffffffffffffffffff826200016d565b620001b886836200016d565b95508019841693508086168417925050509392505050565b6000819050919050565b6000819050919050565b600062000205620001ff620001f984620001d0565b620001da565b620001d0565b9050919050565b6000819050919050565b6200022183620001e4565b6200023962000230826200020c565b8484546200017a565b825550505050565b600090565b6200025062000241565b6200025d81848462000216565b505050565b5b8181101562000285576200027960008262000246565b60018101905062000263565b5050565b601f821115620002d4576200029e8162000148565b620002a9846200015d565b81016020851015620002b9578190505b620002d1620002c8856200015d565b83018262000262565b50505b505050565b600082821c905092915050565b6000620002f960001984600802620002d9565b1980831691505092915050565b6000620003148383620002e6565b9150826002028217905092915050565b6200032f82620000aa565b67ffffffffffffffff8111156200034b576200034a620000b5565b5b62000357825462000113565b6200036482828562000289565b600060209050601f8311600181146200039c576000841562000387578287015190505b62000393858262000306565b86555062000403565b601f198416620003ac8662000148565b60005b82811015620003d657848901518255600182019150602085019450602081019050620003af565b86831015620003f65784890151620003f2601f891682620002e6565b8355505b6001600288020188555050505b505050505050565b612b9c806200041b6000396000f3fe6080604052600436106100dd5760003560e01c80636af812821161007f578063a22cb46511610059578063a22cb465146102d7578063b88d4fde14610300578063c87b56dd14610329578063e985e9c514610366576100dd565b80636af812821461023f57806370a082311461026f57806395d89b41146102ac576100dd565b8063095ea7b3116100bb578063095ea7b31461018757806323b872dd146101b057806342842e0e146101d95780636352211e14610202576100dd565b806301ffc9a7146100e257806306fdde031461011f578063081812fc1461014a575b600080fd5b3480156100ee57600080fd5b5061010960048036038101906101049190611a78565b6103a3565b6040516101169190611ac0565b60405180910390f35b34801561012b57600080fd5b50610134610404565b6040516101419190611b6b565b60405180910390f35b34801561015657600080fd5b50610171600480360381019061016c9190611bc3565b610496565b60405161017e9190611c31565b60405180910390f35b34801561019357600080fd5b506101ae60048036038101906101a99190611c78565b6104dc565b005b3480156101bc57600080fd5b506101d760048036038101906101d29190611cb8565b6105f3565b005b3480156101e557600080fd5b5061020060048036038101906101fb9190611cb8565b610653565b005b34801561020e57600080fd5b5061022960048036038101906102249190611bc3565b610673565b6040516102369190611c31565b60405180910390f35b61025960048036038101906102549190611e40565b6106f9565b6040516102669190611ebe565b60405180910390f35b34801561027b57600080fd5b5061029660048036038101906102919190611ed9565b61073e565b6040516102a39190611ebe565b60405180910390f35b3480156102b857600080fd5b506102c16107f5565b6040516102ce9190611b6b565b60405180910390f35b3480156102e357600080fd5b506102fe60048036038101906102f99190611f32565b610887565b005b34801561030c57600080fd5b5061032760048036038101906103229190612013565b61089d565b005b34801561033557600080fd5b50610350600480360381019061034b9190611bc3565b6108ff565b60405161035d9190611b6b565b60405180910390f35b34801561037257600080fd5b5061038d60048036038101906103889190612096565b610a11565b60405161039a9190611ac0565b60405180910390f35b6000634906490660e01b7bffffffffffffffffffffffffffffffffffffffffffffffffffffffff1916827bffffffffffffffffffffffffffffffffffffffffffffffffffffffff191614806103fd57506103fc82610aa5565b5b9050919050565b60606000805461041390612105565b80601f016020809104026020016040519081016040528092919081815260200182805461043f90612105565b801561048c5780601f106104615761010080835404028352916020019161048c565b820191906000526020600020905b81548152906001019060200180831161046f57829003601f168201915b5050505050905090565b60006104a182610b87565b6004600083815260200190815260200160002060009054906101000a900473ffffffffffffffffffffffffffffffffffffffff169050919050565b60006104e782610673565b90508073ffffffffffffffffffffffffffffffffffffffff168373ffffffffffffffffffffffffffffffffffffffff1603610557576040517f08c379a000000000000000000000000000000000000000000000000000000000815260040161054e906121a8565b60405180910390fd5b8073ffffffffffffffffffffffffffffffffffffffff16610576610bd2565b73ffffffffffffffffffffffffffffffffffffffff1614806105a557506105a48161059f610bd2565b610a11565b5b6105e4576040517f08c379a00000000000000000000000000000000000000000000000000000000081526004016105db9061223a565b60405180910390fd5b6105ee8383610bda565b505050565b6106046105fe610bd2565b82610c93565b610643576040517f08c379a000000000000000000000000000000000000000000000000000000000815260040161063a906122cc565b60405180910390fd5b61064e838383610d28565b505050565b61066e8383836040518060200160405280600081525061089d565b505050565b60008061067f83611021565b9050600073ffffffffffffffffffffffffffffffffffffffff168173ffffffffffffffffffffffffffffffffffffffff16036106f0576040517f08c379a00000000000000000000000000000000000000000000000000000000081526004016106e790612338565b60405180910390fd5b80915050919050565b6000610705600761105e565b60006107116007611074565b905061071d8382611082565b610727818661129f565b61073383856001611343565b809150509392505050565b60008073ffffffffffffffffffffffffffffffffffffffff168273ffffffffffffffffffffffffffffffffffffffff16036107ae576040517f08c379a00000000000000000000000000000000000000000000000000000000081526004016107a5906123ca565b60405180910390fd5b600360008373ffffffffffffffffffffffffffffffffffffffff1673ffffffffffffffffffffffffffffffffffffffff168152602001908152602001600020549050919050565b60606001805461080490612105565b80601f016020809104026020016040519081016040528092919081815260200182805461083090612105565b801561087d5780601f106108525761010080835404028352916020019161087d565b820191906000526020600020905b81548152906001019060200180831161086057829003601f168201915b5050505050905090565b610899610892610bd2565b8383611343565b5050565b6108ae6108a8610bd2565b83610c93565b6108ed576040517f08c379a00000000000000000000000000000000000000000000000000000000081526004016108e4906122cc565b60405180910390fd5b6108f9848484846114af565b50505050565b606061090a82610b87565b600060066000848152602001908152602001600020805461092a90612105565b80601f016020809104026020016040519081016040528092919081815260200182805461095690612105565b80156109a35780601f10610978576101008083540402835291602001916109a3565b820191906000526020600020905b81548152906001019060200180831161098657829003601f168201915b5050505050905060006109b461150b565b905060008151036109c9578192505050610a0c565b6000825111156109fe5780826040516020016109e6929190612426565b60405160208183030381529060405292505050610a0c565b610a0784611522565b925050505b919050565b6000600560008473ffffffffffffffffffffffffffffffffffffffff1673ffffffffffffffffffffffffffffffffffffffff16815260200190815260200160002060008373ffffffffffffffffffffffffffffffffffffffff1673ffffffffffffffffffffffffffffffffffffffff16815260200190815260200160002060009054906101000a900460ff16905092915050565b60007f80ac58cd000000000000000000000000000000000000000000000000000000007bffffffffffffffffffffffffffffffffffffffffffffffffffffffff1916827bffffffffffffffffffffffffffffffffffffffffffffffffffffffff19161480610b7057507f5b5e139f000000000000000000000000000000000000000000000000000000007bffffffffffffffffffffffffffffffffffffffffffffffffffffffff1916827bffffffffffffffffffffffffffffffffffffffffffffffffffffffff1916145b80610b805750610b7f8261158a565b5b9050919050565b610b90816115f4565b610bcf576040517f08c379a0000000000000000000000000000000000000000000000000000000008152600401610bc690612338565b60405180910390fd5b50565b600033905090565b816004600083815260200190815260200160002060006101000a81548173ffffffffffffffffffffffffffffffffffffffff021916908373ffffffffffffffffffffffffffffffffffffffff160217905550808273ffffffffffffffffffffffffffffffffffffffff16610c4d83610673565b73ffffffffffffffffffffffffffffffffffffffff167f8c5be1e5ebec7d5bd14f71427d1e84f3dd0314c0f7b2291e5b200ac8c7c3b92560405160405180910390a45050565b600080610c9f83610673565b90508073ffffffffffffffffffffffffffffffffffffffff168473ffffffffffffffffffffffffffffffffffffffff161480610ce15750610ce08185610a11565b5b80610d1f57508373ffffffffffffffffffffffffffffffffffffffff16610d0784610496565b73ffffffffffffffffffffffffffffffffffffffff16145b91505092915050565b8273ffffffffffffffffffffffffffffffffffffffff16610d4882610673565b73ffffffffffffffffffffffffffffffffffffffff1614610d9e576040517f08c379a0000000000000000000000000000000000000000000000000000000008152600401610d95906124bc565b60405180910390fd5b600073ffffffffffffffffffffffffffffffffffffffff168273ffffffffffffffffffffffffffffffffffffffff1603610e0d576040517f08c379a0000000000000000000000000000000000000000000000000000000008152600401610e049061254e565b60405180910390fd5b610e1a8383836001611635565b8273ffffffffffffffffffffffffffffffffffffffff16610e3a82610673565b73ffffffffffffffffffffffffffffffffffffffff1614610e90576040517f08c379a0000000000000000000000000000000000000000000000000000000008152600401610e87906124bc565b60405180910390fd5b6004600082815260200190815260200160002060006101000a81549073ffffffffffffffffffffffffffffffffffffffff02191690556001600360008573ffffffffffffffffffffffffffffffffffffffff1673ffffffffffffffffffffffffffffffffffffffff168152602001908152602001600020600082825403925050819055506001600360008473ffffffffffffffffffffffffffffffffffffffff1673ffffffffffffffffffffffffffffffffffffffff16815260200190815260200160002060008282540192505081905550816002600083815260200190815260200160002060006101000a81548173ffffffffffffffffffffffffffffffffffffffff021916908373ffffffffffffffffffffffffffffffffffffffff160217905550808273ffffffffffffffffffffffffffffffffffffffff168473ffffffffffffffffffffffffffffffffffffffff167fddf252ad1be2c89b69c2b068fc378daa952ba7f163c4a11628f55a4df523b3ef60405160405180910390a461101c838383600161163b565b505050565b60006002600083815260200190815260200160002060009054906101000a900473ffffffffffffffffffffffffffffffffffffffff169050919050565b6001816000016000828254019250508190555050565b600081600001549050919050565b600073ffffffffffffffffffffffffffffffffffffffff168273ffffffffffffffffffffffffffffffffffffffff16036110f1576040517f08c379a00000000000000000000000000000000000000000000000000000000081526004016110e8906125ba565b60405180910390fd5b6110fa816115f4565b1561113a576040517f08c379a000000000000000000000000000000000000000000000000000000000815260040161113190612626565b60405180910390fd5b611148600083836001611635565b611151816115f4565b15611191576040517f08c379a000000000000000000000000000000000000000000000000000000000815260040161118890612626565b60405180910390fd5b6001600360008473ffffffffffffffffffffffffffffffffffffffff1673ffffffffffffffffffffffffffffffffffffffff16815260200190815260200160002060008282540192505081905550816002600083815260200190815260200160002060006101000a81548173ffffffffffffffffffffffffffffffffffffffff021916908373ffffffffffffffffffffffffffffffffffffffff160217905550808273ffffffffffffffffffffffffffffffffffffffff16600073ffffffffffffffffffffffffffffffffffffffff167fddf252ad1be2c89b69c2b068fc378daa952ba7f163c4a11628f55a4df523b3ef60405160405180910390a461129b60008383600161163b565b5050565b6112a8826115f4565b6112e7576040517f08c379a00000000000000000000000000000000000000000000000000000000081526004016112de906126b8565b60405180910390fd5b806006600084815260200190815260200160002090816113079190612884565b507ff8e1a15aba9398e019f0b49df1a4fde98ee17ae345cb5f6b5e2c27f5033e8ce7826040516113379190611ebe565b60405180910390a15050565b8173ffffffffffffffffffffffffffffffffffffffff168373ffffffffffffffffffffffffffffffffffffffff16036113b1576040517f08c379a00000000000000000000000000000000000000000000000000000000081526004016113a8906129a2565b60405180910390fd5b80600560008573ffffffffffffffffffffffffffffffffffffffff1673ffffffffffffffffffffffffffffffffffffffff16815260200190815260200160002060008473ffffffffffffffffffffffffffffffffffffffff1673ffffffffffffffffffffffffffffffffffffffff16815260200190815260200160002060006101000a81548160ff0219169083151502179055508173ffffffffffffffffffffffffffffffffffffffff168373ffffffffffffffffffffffffffffffffffffffff167f17307eab39ab6107e8899845ad3d59bd9653f200f220920489ca2b5937696c31836040516114a29190611ac0565b60405180910390a3505050565b6114ba848484610d28565b6114c684848484611641565b611505576040517f08c379a00000000000000000000000000000000000000000000000000000000081526004016114fc90612a34565b60405180910390fd5b50505050565b606060405180602001604052806000815250905090565b606061152d82610b87565b600061153761150b565b905060008151116115575760405180602001604052806000815250611582565b80611561846117c8565b604051602001611572929190612426565b6040516020818303038152906040525b915050919050565b60007f01ffc9a7000000000000000000000000000000000000000000000000000000007bffffffffffffffffffffffffffffffffffffffffffffffffffffffff1916827bffffffffffffffffffffffffffffffffffffffffffffffffffffffff1916149050919050565b60008073ffffffffffffffffffffffffffffffffffffffff1661161683611021565b73ffffffffffffffffffffffffffffffffffffffff1614159050919050565b50505050565b50505050565b60006116628473ffffffffffffffffffffffffffffffffffffffff16611896565b156117bb578373ffffffffffffffffffffffffffffffffffffffff1663150b7a0261168b610bd2565b8786866040518563ffffffff1660e01b81526004016116ad9493929190612aa9565b6020604051808303816000875af19250505080156116e957506040513d601f19601f820116820180604052508101906116e69190612b0a565b60015b61176b573d8060008114611719576040519150601f19603f3d011682016040523d82523d6000602084013e61171e565b606091505b506000815103611763576040517f08c379a000000000000000000000000000000000000000000000000000000000815260040161175a90612a34565b60405180910390fd5b805181602001fd5b63150b7a0260e01b7bffffffffffffffffffffffffffffffffffffffffffffffffffffffff1916817bffffffffffffffffffffffffffffffffffffffffffffffffffffffff1916149150506117c0565b600190505b949350505050565b6060600060016117d7846118b9565b01905060008167ffffffffffffffff8111156117f6576117f5611d15565b5b6040519080825280601f01601f1916602001820160405280156118285781602001600182028036833780820191505090505b509050600082602001820190505b60011561188b578080600190039150507f3031323334353637383961626364656600000000000000000000000000000000600a86061a8153600a858161187f5761187e612b37565b5b04945060008503611836575b819350505050919050565b6000808273ffffffffffffffffffffffffffffffffffffffff163b119050919050565b600080600090507a184f03e93ff9f4daa797ed6e38ed64bf6a1f0100000000000000008310611917577a184f03e93ff9f4daa797ed6e38ed64bf6a1f010000000000000000838161190d5761190c612b37565b5b0492506040810190505b6d04ee2d6d415b85acef81000000008310611954576d04ee2d6d415b85acef8100000000838161194a57611949612b37565b5b0492506020810190505b662386f26fc10000831061198357662386f26fc10000838161197957611978612b37565b5b0492506010810190505b6305f5e10083106119ac576305f5e10083816119a2576119a1612b37565b5b0492506008810190505b61271083106119d15761271083816119c7576119c6612b37565b5b0492506004810190505b606483106119f457606483816119ea576119e9612b37565b5b0492506002810190505b600a8310611a03576001810190505b80915050919050565b6000604051905090565b600080fd5b600080fd5b60007fffffffff0000000000000000000000000000000000000000000000000000000082169050919050565b611a5581611a20565b8114611a6057600080fd5b50565b600081359050611a7281611a4c565b92915050565b600060208284031215611a8e57611a8d611a16565b5b6000611a9c84828501611a63565b91505092915050565b60008115159050919050565b611aba81611aa5565b82525050565b6000602082019050611ad56000830184611ab1565b92915050565b600081519050919050565b600082825260208201905092915050565b60005b83811015611b15578082015181840152602081019050611afa565b60008484015250505050565b6000601f19601f8301169050919050565b6000611b3d82611adb565b611b478185611ae6565b9350611b57818560208601611af7565b611b6081611b21565b840191505092915050565b60006020820190508181036000830152611b858184611b32565b905092915050565b6000819050919050565b611ba081611b8d565b8114611bab57600080fd5b50565b600081359050611bbd81611b97565b92915050565b600060208284031215611bd957611bd8611a16565b5b6000611be784828501611bae565b91505092915050565b600073ffffffffffffffffffffffffffffffffffffffff82169050919050565b6000611c1b82611bf0565b9050919050565b611c2b81611c10565b82525050565b6000602082019050611c466000830184611c22565b92915050565b611c5581611c10565b8114611c6057600080fd5b50565b600081359050611c7281611c4c565b92915050565b60008060408385031215611c8f57611c8e611a16565b5b6000611c9d85828601611c63565b9250506020611cae85828601611bae565b9150509250929050565b600080600060608486031215611cd157611cd0611a16565b5b6000611cdf86828701611c63565b9350506020611cf086828701611c63565b9250506040611d0186828701611bae565b9150509250925092565b600080fd5b600080fd5b7f4e487b7100000000000000000000000000000000000000000000000000000000600052604160045260246000fd5b611d4d82611b21565b810181811067ffffffffffffffff82111715611d6c57611d6b611d15565b5b80604052505050565b6000611d7f611a0c565b9050611d8b8282611d44565b919050565b600067ffffffffffffffff821115611dab57611daa611d15565b5b611db482611b21565b9050602081019050919050565b82818337600083830152505050565b6000611de3611dde84611d90565b611d75565b905082815260208101848484011115611dff57611dfe611d10565b5b611e0a848285611dc1565b509392505050565b600082601f830112611e2757611e26611d0b565b5b8135611e37848260208601611dd0565b91505092915050565b600080600060608486031215611e5957611e58611a16565b5b600084013567ffffffffffffffff811115611e7757611e76611a1b565b5b611e8386828701611e12565b9350506020611e9486828701611c63565b9250506040611ea586828701611c63565b9150509250925092565b611eb881611b8d565b82525050565b6000602082019050611ed36000830184611eaf565b92915050565b600060208284031215611eef57611eee611a16565b5b6000611efd84828501611c63565b91505092915050565b611f0f81611aa5565b8114611f1a57600080fd5b50565b600081359050611f2c81611f06565b92915050565b60008060408385031215611f4957611f48611a16565b5b6000611f5785828601611c63565b9250506020611f6885828601611f1d565b9150509250929050565b600067ffffffffffffffff821115611f8d57611f8c611d15565b5b611f9682611b21565b9050602081019050919050565b6000611fb6611fb184611f72565b611d75565b905082815260208101848484011115611fd257611fd1611d10565b5b611fdd848285611dc1565b509392505050565b600082601f830112611ffa57611ff9611d0b565b5b813561200a848260208601611fa3565b91505092915050565b6000806000806080858703121561202d5761202c611a16565b5b600061203b87828801611c63565b945050602061204c87828801611c63565b935050604061205d87828801611bae565b925050606085013567ffffffffffffffff81111561207e5761207d611a1b565b5b61208a87828801611fe5565b91505092959194509250565b600080604083850312156120ad576120ac611a16565b5b60006120bb85828601611c63565b92505060206120cc85828601611c63565b9150509250929050565b7f4e487b7100000000000000000000000000000000000000000000000000000000600052602260045260246000fd5b6000600282049050600182168061211d57607f821691505b6020821081036121305761212f6120d6565b5b50919050565b7f4552433732313a20617070726f76616c20746f2063757272656e74206f776e6560008201527f7200000000000000000000000000000000000000000000000000000000000000602082015250565b6000612192602183611ae6565b915061219d82612136565b604082019050919050565b600060208201905081810360008301526121c181612185565b9050919050565b7f4552433732313a20617070726f76652063616c6c6572206973206e6f7420746f60008201527f6b656e206f776e6572206f7220617070726f76656420666f7220616c6c000000602082015250565b6000612224603d83611ae6565b915061222f826121c8565b604082019050919050565b6000602082019050818103600083015261225381612217565b9050919050565b7f4552433732313a2063616c6c6572206973206e6f7420746f6b656e206f776e6560008201527f72206f7220617070726f76656400000000000000000000000000000000000000602082015250565b60006122b6602d83611ae6565b91506122c18261225a565b604082019050919050565b600060208201905081810360008301526122e5816122a9565b9050919050565b7f4552433732313a20696e76616c696420746f6b656e2049440000000000000000600082015250565b6000612322601883611ae6565b915061232d826122ec565b602082019050919050565b6000602082019050818103600083015261235181612315565b9050919050565b7f4552433732313a2061646472657373207a65726f206973206e6f74206120766160008201527f6c6964206f776e65720000000000000000000000000000000000000000000000602082015250565b60006123b4602983611ae6565b91506123bf82612358565b604082019050919050565b600060208201905081810360008301526123e3816123a7565b9050919050565b600081905092915050565b600061240082611adb565b61240a81856123ea565b935061241a818560208601611af7565b80840191505092915050565b600061243282856123f5565b915061243e82846123f5565b91508190509392505050565b7f4552433732313a207472616e736665722066726f6d20696e636f72726563742060008201527f6f776e6572000000000000000000000000000000000000000000000000000000602082015250565b60006124a6602583611ae6565b91506124b18261244a565b604082019050919050565b600060208201905081810360008301526124d581612499565b9050919050565b7f4552433732313a207472616e7366657220746f20746865207a65726f2061646460008201527f7265737300000000000000000000000000000000000000000000000000000000602082015250565b6000612538602483611ae6565b9150612543826124dc565b604082019050919050565b600060208201905081810360008301526125678161252b565b9050919050565b7f4552433732313a206d696e7420746f20746865207a65726f2061646472657373600082015250565b60006125a4602083611ae6565b91506125af8261256e565b602082019050919050565b600060208201905081810360008301526125d381612597565b9050919050565b7f4552433732313a20746f6b656e20616c7265616479206d696e74656400000000600082015250565b6000612610601c83611ae6565b915061261b826125da565b602082019050919050565b6000602082019050818103600083015261263f81612603565b9050919050565b7f45524337323155524953746f726167653a2055524920736574206f66206e6f6e60008201527f6578697374656e7420746f6b656e000000000000000000000000000000000000602082015250565b60006126a2602e83611ae6565b91506126ad82612646565b604082019050919050565b600060208201905081810360008301526126d181612695565b9050919050565b60008190508160005260206000209050919050565b60006020601f8301049050919050565b600082821b905092915050565b60006008830261273a7fffffffffffffffffffffffffffffffffffffffffffffffffffffffffffffffff826126fd565b61274486836126fd565b95508019841693508086168417925050509392505050565b6000819050919050565b600061278161277c61277784611b8d565b61275c565b611b8d565b9050919050565b6000819050919050565b61279b83612766565b6127af6127a782612788565b84845461270a565b825550505050565b600090565b6127c46127b7565b6127cf818484612792565b505050565b5b818110156127f3576127e86000826127bc565b6001810190506127d5565b5050565b601f82111561283857612809816126d8565b612812846126ed565b81016020851015612821578190505b61283561282d856126ed565b8301826127d4565b50505b505050565b600082821c905092915050565b600061285b6000198460080261283d565b1980831691505092915050565b6000612874838361284a565b9150826002028217905092915050565b61288d82611adb565b67ffffffffffffffff8111156128a6576128a5611d15565b5b6128b08254612105565b6128bb8282856127f7565b600060209050601f8311600181146128ee57600084156128dc578287015190505b6128e68582612868565b86555061294e565b601f1984166128fc866126d8565b60005b82811015612924578489015182556001820191506020850194506020810190506128ff565b86831015612941578489015161293d601f89168261284a565b8355505b6001600288020188555050505b505050505050565b7f4552433732313a20617070726f766520746f2063616c6c657200000000000000600082015250565b600061298c601983611ae6565b915061299782612956565b602082019050919050565b600060208201905081810360008301526129bb8161297f565b9050919050565b7f4552433732313a207472616e7366657220746f206e6f6e20455243373231526560008201527f63656976657220696d706c656d656e7465720000000000000000000000000000602082015250565b6000612a1e603283611ae6565b9150612a29826129c2565b604082019050919050565b60006020820190508181036000830152612a4d81612a11565b9050919050565b600081519050919050565b600082825260208201905092915050565b6000612a7b82612a54565b612a858185612a5f565b9350612a95818560208601611af7565b612a9e81611b21565b840191505092915050565b6000608082019050612abe6000830187611c22565b612acb6020830186611c22565b612ad86040830185611eaf565b8181036060830152612aea8184612a70565b905095945050505050565b600081519050612b0481611a4c565b92915050565b600060208284031215612b2057612b1f611a16565b5b6000612b2e84828501612af5565b91505092915050565b7f4e487b7100000000000000000000000000000000000000000000000000000000600052601260045260246000fdfea264697066735822122039d3128b943bed21ac9ca097c68acf8ccd0dabd2693b7f69b820898f02aabe1b64736f6c63430008130033",
  "linkReferences": {},
  "deployedLinkReferences": {}
}