{
  "_format": "hh-sol-artifact-1",
  "contractName": "NFTMarket",
  "sourceName": "contracts/NFTMarket.sol",
  "abi": [
    {
      "inputs": [],
      "stateMutability": "nonpayable",
      "type": "constructor"
    },
    {
      "anonymous": false,
      "inputs": [
        {
          "indexed": false,
          "internalType": "uint256",
          "name": "token",
          "type": "uint256"
        },
        {
          "indexed": false,
          "internalType": "address",
          "name": "owner",
          "type": "address"
        }
      ],
      "name": "CancelSell",
      "type": "event"
    },
    {
      "anonymous": false,
      "inputs": [
        {
          "indexed": false,
          "internalType": "address",
          "name": "nftContract",
          "type": "address"
        },
        {
          "indexed": false,
          "internalType": "address",
          "name": "owner",
          "type": "address"
        },
        {
          "indexed": false,
          "internalType": "address",
          "name": "creator",
          "type": "address"
        },
        {
          "indexed": false,
          "internalType": "uint256",
          "name": "token",
          "type": "uint256"
        },
        {
          "indexed": false,
          "internalType": "uint256",
          "name": "price",
          "type": "uint256"
        }
      ],
      "name": "Item",
      "type": "event"
    },
    {
      "anonymous": false,
      "inputs": [
        {
          "indexed": false,
          "internalType": "address",
          "name": "nftContract",
          "type": "address"
        },
        {
          "indexed": false,
          "internalType": "address",
          "name": "owner",
          "type": "address"
        },
        {
          "indexed": false,
          "internalType": "address",
          "name": "creator",
          "type": "address"
        },
        {
          "indexed": false,
          "internalType": "uint256",
          "name": "token",
          "type": "uint256"
        },
        {
          "indexed": false,
          "internalType": "uint256",
          "name": "price",
          "type": "uint256"
        }
      ],
      "name": "Sold",
      "type": "event"
    },
    {
      "inputs": [
        {
          "internalType": "uint256",
          "name": "",
          "type": "uint256"
        }
      ],
      "name": "Items",
      "outputs": [
        {
          "internalType": "enum NFTMarket.ListingStatus",
          "name": "status",
          "type": "uint8"
        },
        {
          "internalType": "address",
          "name": "nftContract",
          "type": "address"
        },
        {
          "internalType": "address payable",
          "name": "owner",
          "type": "address"
        },
        {
          "internalType": "address payable",
          "name": "creator",
          "type": "address"
        },
        {
          "internalType": "uint256",
          "name": "token",
          "type": "uint256"
        },
        {
          "internalType": "uint256",
          "name": "price",
          "type": "uint256"
        }
      ],
      "stateMutability": "view",
      "type": "function"
    },
    {
      "inputs": [
        {
          "internalType": "uint256",
          "name": "_tokenId",
          "type": "uint256"
        }
      ],
      "name": "buyItem",
      "outputs": [],
      "stateMutability": "payable",
      "type": "function"
    },
    {
      "inputs": [
        {
          "internalType": "uint256",
          "name": "_tokenId",
          "type": "uint256"
        }
      ],
      "name": "cancelSell",
      "outputs": [],
      "stateMutability": "nonpayable",
      "type": "function"
    },
    {
      "inputs": [
        {
          "internalType": "uint256",
          "name": "_minCostLising",
          "type": "uint256"
        }
      ],
      "name": "changeCostListing",
      "outputs": [],
      "stateMutability": "nonpayable",
      "type": "function"
    },
    {
      "inputs": [],
      "name": "fetchCreatorItemsListed",
      "outputs": [
        {
          "components": [
            {
              "internalType": "enum NFTMarket.ListingStatus",
              "name": "status",
              "type": "uint8"
            },
            {
              "internalType": "address",
              "name": "nftContract",
              "type": "address"
            },
            {
              "internalType": "address payable",
              "name": "owner",
              "type": "address"
            },
            {
              "internalType": "address payable",
              "name": "creator",
              "type": "address"
            },
            {
              "internalType": "uint256",
              "name": "token",
              "type": "uint256"
            },
            {
              "internalType": "uint256",
              "name": "price",
              "type": "uint256"
            }
          ],
          "internalType": "struct NFTMarket._Item[]",
          "name": "",
          "type": "tuple[]"
        }
      ],
      "stateMutability": "view",
      "type": "function"
    },
    {
      "inputs": [],
      "name": "fetchMarketItems",
      "outputs": [
        {
          "components": [
            {
              "internalType": "enum NFTMarket.ListingStatus",
              "name": "status",
              "type": "uint8"
            },
            {
              "internalType": "address",
              "name": "nftContract",
              "type": "address"
            },
            {
              "internalType": "address payable",
              "name": "owner",
              "type": "address"
            },
            {
              "internalType": "address payable",
              "name": "creator",
              "type": "address"
            },
            {
              "internalType": "uint256",
              "name": "token",
              "type": "uint256"
            },
            {
              "internalType": "uint256",
              "name": "price",
              "type": "uint256"
            }
          ],
          "internalType": "struct NFTMarket._Item[]",
          "name": "",
          "type": "tuple[]"
        }
      ],
      "stateMutability": "view",
      "type": "function"
    },
    {
      "inputs": [],
      "name": "fetchOwnerItemsListed",
      "outputs": [
        {
          "components": [
            {
              "internalType": "enum NFTMarket.ListingStatus",
              "name": "status",
              "type": "uint8"
            },
            {
              "internalType": "address",
              "name": "nftContract",
              "type": "address"
            },
            {
              "internalType": "address payable",
              "name": "owner",
              "type": "address"
            },
            {
              "internalType": "address payable",
              "name": "creator",
              "type": "address"
            },
            {
              "internalType": "uint256",
              "name": "token",
              "type": "uint256"
            },
            {
              "internalType": "uint256",
              "name": "price",
              "type": "uint256"
            }
          ],
          "internalType": "struct NFTMarket._Item[]",
          "name": "",
          "type": "tuple[]"
        }
      ],
      "stateMutability": "view",
      "type": "function"
    },
    {
      "inputs": [],
      "name": "getBalance",
      "outputs": [
        {
          "internalType": "uint256",
          "name": "",
          "type": "uint256"
        }
      ],
      "stateMutability": "view",
      "type": "function"
    },
    {
      "inputs": [],
      "name": "mintingCost",
      "outputs": [
        {
          "internalType": "uint256",
          "name": "",
          "type": "uint256"
        }
      ],
      "stateMutability": "view",
      "type": "function"
    },
    {
      "inputs": [
        {
          "internalType": "string",
          "name": "uri",
          "type": "string"
        },
        {
          "internalType": "uint256",
          "name": "_price",
          "type": "uint256"
        },
        {
          "internalType": "address",
          "name": "_nftContract",
          "type": "address"
        }
      ],
      "name": "sellItem",
      "outputs": [],
      "stateMutability": "payable",
      "type": "function"
    },
    {
      "inputs": [
        {
          "internalType": "address payable",
          "name": "recipient",
          "type": "address"
        }
      ],
      "name": "withdraw",
      "outputs": [],
      "stateMutability": "nonpayable",
      "type": "function"
    }
  ],
  "bytecode": "0x6080604052655af3107a400060045534801561001a57600080fd5b50600160008190555033600360006101000a81548173ffffffffffffffffffffffffffffffffffffffff021916908373ffffffffffffffffffffffffffffffffffffffff160217905550612696806100736000396000f3fe60806040526004361061009c5760003560e01c806351cff8d91161006457806351cff8d91461018b5780635c90fc66146101b4578063ae8ef20a146101df578063e7fb74c7146101fb578063ebf98abf14610217578063fc50b5d3146102425761009c565b806307c9cd45146100a15780630f08efe0146100ca57806312065fe0146100f5578063131d00ab1461012057806317b47cc414610149575b600080fd5b3480156100ad57600080fd5b506100c860048036038101906100c391906119c9565b61026d565b005b3480156100d657600080fd5b506100df610511565b6040516100ec9190611c08565b60405180910390f35b34801561010157600080fd5b5061010a6107ef565b6040516101179190611c39565b60405180910390f35b34801561012c57600080fd5b50610147600480360381019061014291906119c9565b610887565b005b34801561015557600080fd5b50610170600480360381019061016b91906119c9565b610921565b60405161018296959493929190611c81565b60405180910390f35b34801561019757600080fd5b506101b260048036038101906101ad9190611d0e565b6109ca565b005b3480156101c057600080fd5b506101c9610b13565b6040516101d69190611c08565b60405180910390f35b6101f960048036038101906101f49190611ead565b610e75565b005b610215600480360381019061021091906119c9565b61120e565b005b34801561022357600080fd5b5061022c611510565b6040516102399190611c39565b60405180910390f35b34801561024e57600080fd5b50610257611516565b6040516102649190611c08565b60405180910390f35b60006005600083815260200190815260200160002090508060010160009054906101000a900473ffffffffffffffffffffffffffffffffffffffff1673ffffffffffffffffffffffffffffffffffffffff163373ffffffffffffffffffffffffffffffffffffffff16148061033157508060020160009054906101000a900473ffffffffffffffffffffffffffffffffffffffff1673ffffffffffffffffffffffffffffffffffffffff163373ffffffffffffffffffffffffffffffffffffffff16145b610370576040517f08c379a000000000000000000000000000000000000000000000000000000000815260040161036790611f79565b60405180910390fd5b6000600281111561038457610383611a22565b5b8160000160009054906101000a900460ff1660028111156103a8576103a7611a22565b5b146103e8576040517f08c379a00000000000000000000000000000000000000000000000000000000081526004016103df90611fe5565b60405180910390fd5b60028160000160006101000a81548160ff021916908360028111156104105761040f611a22565b5b02179055508060000160019054906101000a900473ffffffffffffffffffffffffffffffffffffffff1673ffffffffffffffffffffffffffffffffffffffff166323b872dd303384600301546040518463ffffffff1660e01b815260040161047a93929190612005565b600060405180830381600087803b15801561049457600080fd5b505af11580156104a8573d6000803e3d6000fd5b505050507f9a7ead5b5e3d6b8d3e88f6057599b7eecec51b2aad38c25b8141deaec6dcabc381600301548260010160009054906101000a900473ffffffffffffffffffffffffffffffffffffffff1660405161050592919061209b565b60405180910390a15050565b6060600061051f6001611878565b9050600061052d6002611878565b6105376001611878565b61054191906120f3565b90506000808267ffffffffffffffff8111156105605761055f611d56565b5b60405190808252806020026020018201604052801561059957816020015b6105866118f5565b81526020019060019003908161057e5790505b50905060005b848110156107e4573073ffffffffffffffffffffffffffffffffffffffff16600560006001846105cf9190612127565b815260200190815260200160002060010160009054906101000a900473ffffffffffffffffffffffffffffffffffffffff1673ffffffffffffffffffffffffffffffffffffffff16036107d157600060018261062b9190612127565b90506000600560008381526020019081526020016000209050806040518060c00160405290816000820160009054906101000a900460ff16600281111561067557610674611a22565b5b600281111561068757610686611a22565b5b81526020016000820160019054906101000a900473ffffffffffffffffffffffffffffffffffffffff1673ffffffffffffffffffffffffffffffffffffffff1673ffffffffffffffffffffffffffffffffffffffff1681526020016001820160009054906101000a900473ffffffffffffffffffffffffffffffffffffffff1673ffffffffffffffffffffffffffffffffffffffff1673ffffffffffffffffffffffffffffffffffffffff1681526020016002820160009054906101000a900473ffffffffffffffffffffffffffffffffffffffff1673ffffffffffffffffffffffffffffffffffffffff1673ffffffffffffffffffffffffffffffffffffffff168152602001600382015481526020016004820154815250508486815181106107b4576107b361215b565b5b60200260200101819052506001856107cc9190612127565b945050505b80806107dc9061218a565b91505061059f565b508094505050505090565b6000600360009054906101000a900473ffffffffffffffffffffffffffffffffffffffff1673ffffffffffffffffffffffffffffffffffffffff163373ffffffffffffffffffffffffffffffffffffffff1614610881576040517f08c379a000000000000000000000000000000000000000000000000000000000815260040161087890612244565b60405180910390fd5b47905090565b600360009054906101000a900473ffffffffffffffffffffffffffffffffffffffff1673ffffffffffffffffffffffffffffffffffffffff163373ffffffffffffffffffffffffffffffffffffffff1614610917576040517f08c379a000000000000000000000000000000000000000000000000000000000815260040161090e90612244565b60405180910390fd5b8060048190555050565b60056020528060005260406000206000915090508060000160009054906101000a900460ff16908060000160019054906101000a900473ffffffffffffffffffffffffffffffffffffffff16908060010160009054906101000a900473ffffffffffffffffffffffffffffffffffffffff16908060020160009054906101000a900473ffffffffffffffffffffffffffffffffffffffff16908060030154908060040154905086565b600360009054906101000a900473ffffffffffffffffffffffffffffffffffffffff1673ffffffffffffffffffffffffffffffffffffffff163373ffffffffffffffffffffffffffffffffffffffff1614610a5a576040517f08c379a0000000000000000000000000000000000000000000000000000000008152600401610a5190612244565b60405180910390fd5b600073ffffffffffffffffffffffffffffffffffffffff168173ffffffffffffffffffffffffffffffffffffffff1603610ac9576040517f08c379a0000000000000000000000000000000000000000000000000000000008152600401610ac0906122d6565b60405180910390fd5b8073ffffffffffffffffffffffffffffffffffffffff166108fc479081150290604051600060405180830381858888f19350505050158015610b0f573d6000803e3d6000fd5b5050565b60606000610b216001611878565b905060008060005b83811015610bc9573373ffffffffffffffffffffffffffffffffffffffff1660056000600184610b599190612127565b815260200190815260200160002060010160009054906101000a900473ffffffffffffffffffffffffffffffffffffffff1673ffffffffffffffffffffffffffffffffffffffff1603610bb657600183610bb39190612127565b92505b8080610bc19061218a565b915050610b29565b5060008267ffffffffffffffff811115610be657610be5611d56565b5b604051908082528060200260200182016040528015610c1f57816020015b610c0c6118f5565b815260200190600190039081610c045790505b50905060005b84811015610e6a573373ffffffffffffffffffffffffffffffffffffffff1660056000600184610c559190612127565b815260200190815260200160002060010160009054906101000a900473ffffffffffffffffffffffffffffffffffffffff1673ffffffffffffffffffffffffffffffffffffffff1603610e57576000600182610cb19190612127565b90506000600560008381526020019081526020016000209050806040518060c00160405290816000820160009054906101000a900460ff166002811115610cfb57610cfa611a22565b5b6002811115610d0d57610d0c611a22565b5b81526020016000820160019054906101000a900473ffffffffffffffffffffffffffffffffffffffff1673ffffffffffffffffffffffffffffffffffffffff1673ffffffffffffffffffffffffffffffffffffffff1681526020016001820160009054906101000a900473ffffffffffffffffffffffffffffffffffffffff1673ffffffffffffffffffffffffffffffffffffffff1673ffffffffffffffffffffffffffffffffffffffff1681526020016002820160009054906101000a900473ffffffffffffffffffffffffffffffffffffffff1673ffffffffffffffffffffffffffffffffffffffff1673ffffffffffffffffffffffffffffffffffffffff16815260200160038201548152602001600482015481525050848681518110610e3a57610e3961215b565b5b6020026020010181905250600185610e529190612127565b945050505b8080610e629061218a565b915050610c25565b508094505050505090565b610e7d611886565b60008211610ec0576040517f08c379a0000000000000000000000000000000000000000000000000000000008152600401610eb790612342565b60405180910390fd5b6004543414610f04576040517f08c379a0000000000000000000000000000000000000000000000000000000008152600401610efb906123d4565b60405180910390fd5b610f0e60016118d5565b6000610f1a6001611878565b905060008273ffffffffffffffffffffffffffffffffffffffff16636af812828630336040518463ffffffff1660e01b8152600401610f5b93929190612462565b6020604051808303816000875af1158015610f7a573d6000803e3d6000fd5b505050506040513d601f19601f82011682018060405250810190610f9e91906124b5565b90506040518060c0016040528060006002811115610fbf57610fbe611a22565b5b81526020018473ffffffffffffffffffffffffffffffffffffffff1681526020013073ffffffffffffffffffffffffffffffffffffffff1681526020013373ffffffffffffffffffffffffffffffffffffffff168152602001828152602001858152506005600084815260200190815260200160002060008201518160000160006101000a81548160ff021916908360028111156110605761105f611a22565b5b021790555060208201518160000160016101000a81548173ffffffffffffffffffffffffffffffffffffffff021916908373ffffffffffffffffffffffffffffffffffffffff16021790555060408201518160010160006101000a81548173ffffffffffffffffffffffffffffffffffffffff021916908373ffffffffffffffffffffffffffffffffffffffff16021790555060608201518160020160006101000a81548173ffffffffffffffffffffffffffffffffffffffff021916908373ffffffffffffffffffffffffffffffffffffffff1602179055506080820151816003015560a082015181600401559050508273ffffffffffffffffffffffffffffffffffffffff166323b872dd3330846040518463ffffffff1660e01b815260040161118e93929190612005565b600060405180830381600087803b1580156111a857600080fd5b505af11580156111bc573d6000803e3d6000fd5b505050507f14119be79c3c72a43e018782c3768e0f129fd3c6b43e7fd40c621cfd78c5518083303384886040516111f79594939291906124e2565b60405180910390a150506112096118eb565b505050565b611216611886565b600060056000838152602001908152602001600020905034816004015414611273576040517f08c379a000000000000000000000000000000000000000000000000000000000815260040161126a90612581565b60405180910390fd5b338160010160006101000a81548173ffffffffffffffffffffffffffffffffffffffff021916908373ffffffffffffffffffffffffffffffffffffffff16021790555060018160000160006101000a81548160ff021916908360028111156112de576112dd611a22565b5b021790555060008160020160009054906101000a900473ffffffffffffffffffffffffffffffffffffffff169050600073ffffffffffffffffffffffffffffffffffffffff168260010160009054906101000a900473ffffffffffffffffffffffffffffffffffffffff1673ffffffffffffffffffffffffffffffffffffffff160361138c578160010160009054906101000a900473ffffffffffffffffffffffffffffffffffffffff1690505b8073ffffffffffffffffffffffffffffffffffffffff166108fc349081150290604051600060405180830381858888f193505050501580156113d2573d6000803e3d6000fd5b506113dd60026118d5565b8160000160019054906101000a900473ffffffffffffffffffffffffffffffffffffffff1673ffffffffffffffffffffffffffffffffffffffff166323b872dd303385600301546040518463ffffffff1660e01b815260040161144293929190612005565b600060405180830381600087803b15801561145c57600080fd5b505af1158015611470573d6000803e3d6000fd5b505050507f5764dbcef91eb6f946584f4ea671217c686fa7e858ce4f9f42d08422b86556a98260000160019054906101000a900473ffffffffffffffffffffffffffffffffffffffff16338460020160009054906101000a900473ffffffffffffffffffffffffffffffffffffffff16856003015486600401546040516114fb9594939291906125a1565b60405180910390a1505061150d6118eb565b50565b60045481565b606060006115246001611878565b905060008060005b838110156115cc573373ffffffffffffffffffffffffffffffffffffffff166005600060018461155c9190612127565b815260200190815260200160002060020160009054906101000a900473ffffffffffffffffffffffffffffffffffffffff1673ffffffffffffffffffffffffffffffffffffffff16036115b9576001836115b69190612127565b92505b80806115c49061218a565b91505061152c565b5060008267ffffffffffffffff8111156115e9576115e8611d56565b5b60405190808252806020026020018201604052801561162257816020015b61160f6118f5565b8152602001906001900390816116075790505b50905060005b8481101561186d573373ffffffffffffffffffffffffffffffffffffffff16600560006001846116589190612127565b815260200190815260200160002060020160009054906101000a900473ffffffffffffffffffffffffffffffffffffffff1673ffffffffffffffffffffffffffffffffffffffff160361185a5760006001826116b49190612127565b90506000600560008381526020019081526020016000209050806040518060c00160405290816000820160009054906101000a900460ff1660028111156116fe576116fd611a22565b5b60028111156117105761170f611a22565b5b81526020016000820160019054906101000a900473ffffffffffffffffffffffffffffffffffffffff1673ffffffffffffffffffffffffffffffffffffffff1673ffffffffffffffffffffffffffffffffffffffff1681526020016001820160009054906101000a900473ffffffffffffffffffffffffffffffffffffffff1673ffffffffffffffffffffffffffffffffffffffff1673ffffffffffffffffffffffffffffffffffffffff1681526020016002820160009054906101000a900473ffffffffffffffffffffffffffffffffffffffff1673ffffffffffffffffffffffffffffffffffffffff1673ffffffffffffffffffffffffffffffffffffffff1681526020016003820154815260200160048201548152505084868151811061183d5761183c61215b565b5b60200260200101819052506001856118559190612127565b945050505b80806118659061218a565b915050611628565b508094505050505090565b600081600001549050919050565b6002600054036118cb576040517f08c379a00000000000000000000000000000000000000000000000000000000081526004016118c290612640565b60405180910390fd5b6002600081905550565b6001816000016000828254019250508190555050565b6001600081905550565b6040518060c001604052806000600281111561191457611913611a22565b5b8152602001600073ffffffffffffffffffffffffffffffffffffffff168152602001600073ffffffffffffffffffffffffffffffffffffffff168152602001600073ffffffffffffffffffffffffffffffffffffffff16815260200160008152602001600081525090565b6000604051905090565b600080fd5b600080fd5b6000819050919050565b6119a681611993565b81146119b157600080fd5b50565b6000813590506119c38161199d565b92915050565b6000602082840312156119df576119de611989565b5b60006119ed848285016119b4565b91505092915050565b600081519050919050565b600082825260208201905092915050565b6000819050602082019050919050565b7f4e487b7100000000000000000000000000000000000000000000000000000000600052602160045260246000fd5b60038110611a6257611a61611a22565b5b50565b6000819050611a7382611a51565b919050565b6000611a8382611a65565b9050919050565b611a9381611a78565b82525050565b600073ffffffffffffffffffffffffffffffffffffffff82169050919050565b6000611ac482611a99565b9050919050565b611ad481611ab9565b82525050565b6000611ae582611a99565b9050919050565b611af581611ada565b82525050565b611b0481611993565b82525050565b60c082016000820151611b206000850182611a8a565b506020820151611b336020850182611acb565b506040820151611b466040850182611aec565b506060820151611b596060850182611aec565b506080820151611b6c6080850182611afb565b5060a0820151611b7f60a0850182611afb565b50505050565b6000611b918383611b0a565b60c08301905092915050565b6000602082019050919050565b6000611bb5826119f6565b611bbf8185611a01565b9350611bca83611a12565b8060005b83811015611bfb578151611be28882611b85565b9750611bed83611b9d565b925050600181019050611bce565b5085935050505092915050565b60006020820190508181036000830152611c228184611baa565b905092915050565b611c3381611993565b82525050565b6000602082019050611c4e6000830184611c2a565b92915050565b611c5d81611a78565b82525050565b611c6c81611ab9565b82525050565b611c7b81611ada565b82525050565b600060c082019050611c966000830189611c54565b611ca36020830188611c63565b611cb06040830187611c72565b611cbd6060830186611c72565b611cca6080830185611c2a565b611cd760a0830184611c2a565b979650505050505050565b611ceb81611ada565b8114611cf657600080fd5b50565b600081359050611d0881611ce2565b92915050565b600060208284031215611d2457611d23611989565b5b6000611d3284828501611cf9565b91505092915050565b600080fd5b600080fd5b6000601f19601f8301169050919050565b7f4e487b7100000000000000000000000000000000000000000000000000000000600052604160045260246000fd5b611d8e82611d45565b810181811067ffffffffffffffff82111715611dad57611dac611d56565b5b80604052505050565b6000611dc061197f565b9050611dcc8282611d85565b919050565b600067ffffffffffffffff821115611dec57611deb611d56565b5b611df582611d45565b9050602081019050919050565b82818337600083830152505050565b6000611e24611e1f84611dd1565b611db6565b905082815260208101848484011115611e4057611e3f611d40565b5b611e4b848285611e02565b509392505050565b600082601f830112611e6857611e67611d3b565b5b8135611e78848260208601611e11565b91505092915050565b611e8a81611ab9565b8114611e9557600080fd5b50565b600081359050611ea781611e81565b92915050565b600080600060608486031215611ec657611ec5611989565b5b600084013567ffffffffffffffff811115611ee457611ee361198e565b5b611ef086828701611e53565b9350506020611f01868287016119b4565b9250506040611f1286828701611e98565b9150509250925092565b600082825260208201905092915050565b7f4f6e6c79206f776e65722063616e2063616e63656c206c697374696e67000000600082015250565b6000611f63601d83611f1c565b9150611f6e82611f2d565b602082019050919050565b60006020820190508181036000830152611f9281611f56565b9050919050565b7f4c697374696e67206973206e6f74206163746976650000000000000000000000600082015250565b6000611fcf601583611f1c565b9150611fda82611f99565b602082019050919050565b60006020820190508181036000830152611ffe81611fc2565b9050919050565b600060608201905061201a6000830186611c63565b6120276020830185611c63565b6120346040830184611c2a565b949350505050565b6000819050919050565b600061206161205c61205784611a99565b61203c565b611a99565b9050919050565b600061207382612046565b9050919050565b600061208582612068565b9050919050565b6120958161207a565b82525050565b60006040820190506120b06000830185611c2a565b6120bd602083018461208c565b9392505050565b7f4e487b7100000000000000000000000000000000000000000000000000000000600052601160045260246000fd5b60006120fe82611993565b915061210983611993565b9250828203905081811115612121576121206120c4565b5b92915050565b600061213282611993565b915061213d83611993565b9250828201905080821115612155576121546120c4565b5b92915050565b7f4e487b7100000000000000000000000000000000000000000000000000000000600052603260045260246000fd5b600061219582611993565b91507fffffffffffffffffffffffffffffffffffffffffffffffffffffffffffffffff82036121c7576121c66120c4565b5b600182019050919050565b7f596f7520646f6e27742068617665207065726d697373696f6e20746f2063616c60008201527f6c20746869732066756e6374696f6e0000000000000000000000000000000000602082015250565b600061222e602f83611f1c565b9150612239826121d2565b604082019050919050565b6000602082019050818103600083015261225d81612221565b9050919050565b7f54686520726563697069656e74277320616464726573732073686f756c64206e60008201527f6f7420626520657175616c20746f2061646472657373207a65726f2e00000000602082015250565b60006122c0603c83611f1c565b91506122cb82612264565b604082019050919050565b600060208201905081810360008301526122ef816122b3565b9050919050565b7f5072696365206d757374206265206174206c6561737420312077656900000000600082015250565b600061232c601c83611f1c565b9150612337826122f6565b602082019050919050565b6000602082019050818103600083015261235b8161231f565b9050919050565b7f5072696365206d75737420626520657175616c20746f206c697374696e67207060008201527f7269636500000000000000000000000000000000000000000000000000000000602082015250565b60006123be602483611f1c565b91506123c982612362565b604082019050919050565b600060208201905081810360008301526123ed816123b1565b9050919050565b600081519050919050565b60005b8381101561241d578082015181840152602081019050612402565b60008484015250505050565b6000612434826123f4565b61243e8185611f1c565b935061244e8185602086016123ff565b61245781611d45565b840191505092915050565b6000606082019050818103600083015261247c8186612429565b905061248b6020830185611c63565b6124986040830184611c63565b949350505050565b6000815190506124af8161199d565b92915050565b6000602082840312156124cb576124ca611989565b5b60006124d9848285016124a0565b91505092915050565b600060a0820190506124f76000830188611c63565b612504602083018761208c565b612511604083018661208c565b61251e6060830185611c2a565b61252b6080830184611c2a565b9695505050505050565b7f5072696365206d75737420626520657175616c20746f204e4654207072696365600082015250565b600061256b602083611f1c565b915061257682612535565b602082019050919050565b6000602082019050818103600083015261259a8161255e565b9050919050565b600060a0820190506125b66000830188611c63565b6125c36020830187611c63565b6125d0604083018661208c565b6125dd6060830185611c2a565b6125ea6080830184611c2a565b9695505050505050565b7f5265656e7472616e637947756172643a207265656e7472616e742063616c6c00600082015250565b600061262a601f83611f1c565b9150612635826125f4565b602082019050919050565b600060208201905081810360008301526126598161261d565b905091905056fea2646970667358221220dcf45008a80332590a7491ea09558dcb509d3ceba4b3872cc06c1ef581cac30364736f6c63430008130033",
  "linkReferences": {},
  "deployedLinkReferences": {}
}